{
  "_format": "hh-sol-artifact-1",
  "contractName": "VeTresrToken",
  "sourceName": "contracts/VeTresrToken.sol",
  "abi": [
    {
      "anonymous": false,
      "inputs": [
        {
          "indexed": true,
          "internalType": "address",
          "name": "account",
          "type": "address"
        },
        {
          "indexed": false,
          "internalType": "uint256",
          "name": "value",
          "type": "uint256"
        }
      ],
      "name": "Burn",
      "type": "event"
    },
    {
      "anonymous": false,
      "inputs": [
        {
          "indexed": true,
          "internalType": "address",
          "name": "beneficiary",
          "type": "address"
        },
        {
          "indexed": false,
          "internalType": "uint256",
          "name": "value",
          "type": "uint256"
        }
      ],
      "name": "Mint",
      "type": "event"
    },
    {
      "anonymous": false,
      "inputs": [
        {
          "indexed": true,
          "internalType": "address",
          "name": "previousOwner",
          "type": "address"
        },
        {
          "indexed": true,
          "internalType": "address",
          "name": "newOwner",
          "type": "address"
        }
      ],
      "name": "OwnershipTransferred",
      "type": "event"
    },
    {
      "inputs": [
        {
          "internalType": "address",
          "name": "account",
          "type": "address"
        }
      ],
      "name": "balanceOf",
      "outputs": [
        {
          "internalType": "uint256",
          "name": "",
          "type": "uint256"
        }
      ],
      "stateMutability": "view",
      "type": "function"
    },
    {
      "inputs": [
        {
          "internalType": "address",
          "name": "_from",
          "type": "address"
        },
        {
          "internalType": "uint256",
          "name": "_amount",
          "type": "uint256"
        }
      ],
      "name": "burnFrom",
      "outputs": [],
      "stateMutability": "nonpayable",
      "type": "function"
    },
    {
      "inputs": [],
      "name": "decimals",
      "outputs": [
        {
          "internalType": "uint8",
          "name": "",
          "type": "uint8"
        }
      ],
      "stateMutability": "view",
      "type": "function"
    },
    {
      "inputs": [
        {
          "internalType": "address",
          "name": "_to",
          "type": "address"
        },
        {
          "internalType": "uint256",
          "name": "_amount",
          "type": "uint256"
        }
      ],
      "name": "mint",
      "outputs": [],
      "stateMutability": "nonpayable",
      "type": "function"
    },
    {
      "inputs": [],
      "name": "name",
      "outputs": [
        {
          "internalType": "string",
          "name": "",
          "type": "string"
        }
      ],
      "stateMutability": "view",
      "type": "function"
    },
    {
      "inputs": [],
      "name": "owner",
      "outputs": [
        {
          "internalType": "address",
          "name": "",
          "type": "address"
        }
      ],
      "stateMutability": "view",
      "type": "function"
    },
    {
      "inputs": [],
      "name": "renounceOwnership",
      "outputs": [],
      "stateMutability": "nonpayable",
      "type": "function"
    },
    {
      "inputs": [
        {
          "internalType": "address",
          "name": "_from",
          "type": "address"
        }
      ],
      "name": "resetBalance",
      "outputs": [],
      "stateMutability": "nonpayable",
      "type": "function"
    },
    {
      "inputs": [],
      "name": "symbol",
      "outputs": [
        {
          "internalType": "string",
          "name": "",
          "type": "string"
        }
      ],
      "stateMutability": "view",
      "type": "function"
    },
    {
      "inputs": [],
      "name": "totalSupply",
      "outputs": [
        {
          "internalType": "uint256",
          "name": "",
          "type": "uint256"
        }
      ],
      "stateMutability": "view",
      "type": "function"
    },
    {
      "inputs": [
        {
          "internalType": "address",
          "name": "newOwner",
          "type": "address"
        }
      ],
      "name": "transferOwnership",
      "outputs": [],
      "stateMutability": "nonpayable",
      "type": "function"
    }
  ],
  "bytecode": "0x60806040523480156200001157600080fd5b506040518060400160405280600a81526020017f56654a6f65546f6b656e000000000000000000000000000000000000000000008152506040518060400160405280600581526020017f76654a4f45000000000000000000000000000000000000000000000000000000815250816002908051906020019062000096929190620001a6565b508060039080519060200190620000af929190620001a6565b505050620000d2620000c6620000d860201b60201c565b620000e060201b60201c565b620002bb565b600033905090565b6000600460009054906101000a900473ffffffffffffffffffffffffffffffffffffffff16905081600460006101000a81548173ffffffffffffffffffffffffffffffffffffffff021916908373ffffffffffffffffffffffffffffffffffffffff1602179055508173ffffffffffffffffffffffffffffffffffffffff168173ffffffffffffffffffffffffffffffffffffffff167f8be0079c531659141344cd1fd0a4f28419497f9722a3daafe3b4186f6b6457e060405160405180910390a35050565b828054620001b49062000256565b90600052602060002090601f016020900481019282620001d8576000855562000224565b82601f10620001f357805160ff191683800117855562000224565b8280016001018555821562000224579182015b828111156200022357825182559160200191906001019062000206565b5b50905062000233919062000237565b5090565b5b808211156200025257600081600090555060010162000238565b5090565b600060028204905060018216806200026f57607f821691505b602082108114156200028657620002856200028c565b5b50919050565b7f4e487b7100000000000000000000000000000000000000000000000000000000600052602260045260246000fd5b6111ff80620002cb6000396000f3fe608060405234801561001057600080fd5b50600436106100a95760003560e01c8063715018a611610071578063715018a61461015457806379cc67901461015e5780638da5cb5b1461017a57806395d89b4114610198578063bd051844146101b6578063f2fde38b146101d2576100a9565b806306fdde03146100ae57806318160ddd146100cc578063313ce567146100ea57806340c10f191461010857806370a0823114610124575b600080fd5b6100b66101ee565b6040516100c39190610d32565b60405180910390f35b6100d4610280565b6040516100e19190610e14565b60405180910390f35b6100f261028a565b6040516100ff9190610e2f565b60405180910390f35b610122600480360381019061011d9190610ba3565b610293565b005b61013e60048036038101906101399190610b7a565b61031d565b60405161014b9190610e14565b60405180910390f35b61015c610365565b005b61017860048036038101906101739190610ba3565b61041c565b005b6101826104a6565b60405161018f9190610d17565b60405180910390f35b6101a06104d0565b6040516101ad9190610d32565b60405180910390f35b6101d060048036038101906101cb9190610b7a565b610562565b005b6101ec60048036038101906101e79190610b7a565b6105f9565b005b6060600280546101fd90610f6c565b80601f016020809104026020016040519081016040528092919081815260200182805461022990610f6c565b80156102765780601f1061024b57610100808354040283529160200191610276565b820191906000526020600020905b81548152906001019060200180831161025957829003601f168201915b5050505050905090565b6000600154905090565b60006012905090565b61029b6106f1565b73ffffffffffffffffffffffffffffffffffffffff166102b96104a6565b73ffffffffffffffffffffffffffffffffffffffff161461030f576040517f08c379a000000000000000000000000000000000000000000000000000000000815260040161030690610d94565b60405180910390fd5b61031982826106f9565b5050565b60008060008373ffffffffffffffffffffffffffffffffffffffff1673ffffffffffffffffffffffffffffffffffffffff168152602001908152602001600020549050919050565b61036d6106f1565b73ffffffffffffffffffffffffffffffffffffffff1661038b6104a6565b73ffffffffffffffffffffffffffffffffffffffff16146103e1576040517f08c379a00000000000000000000000000000000000000000000000000000000081526004016103d890610d94565b60405180910390fd5b6040517f08c379a000000000000000000000000000000000000000000000000000000000815260040161041390610dd4565b60405180910390fd5b6104246106f1565b73ffffffffffffffffffffffffffffffffffffffff166104426104a6565b73ffffffffffffffffffffffffffffffffffffffff1614610498576040517f08c379a000000000000000000000000000000000000000000000000000000000815260040161048f90610d94565b60405180910390fd5b6104a2828261087d565b5050565b6000600460009054906101000a900473ffffffffffffffffffffffffffffffffffffffff16905090565b6060600380546104df90610f6c565b80601f016020809104026020016040519081016040528092919081815260200182805461050b90610f6c565b80156105585780601f1061052d57610100808354040283529160200191610558565b820191906000526020600020905b81548152906001019060200180831161053b57829003601f168201915b5050505050905090565b61056a6106f1565b73ffffffffffffffffffffffffffffffffffffffff166105886104a6565b73ffffffffffffffffffffffffffffffffffffffff16146105de576040517f08c379a00000000000000000000000000000000000000000000000000000000081526004016105d590610d94565b60405180910390fd5b60006105e98261031d565b90506105f5828261087d565b5050565b6106016106f1565b73ffffffffffffffffffffffffffffffffffffffff1661061f6104a6565b73ffffffffffffffffffffffffffffffffffffffff1614610675576040517f08c379a000000000000000000000000000000000000000000000000000000000815260040161066c90610d94565b60405180910390fd5b600073ffffffffffffffffffffffffffffffffffffffff168173ffffffffffffffffffffffffffffffffffffffff1614156106e5576040517f08c379a00000000000000000000000000000000000000000000000000000000081526004016106dc90610d74565b60405180910390fd5b6106ee81610a81565b50565b600033905090565b600073ffffffffffffffffffffffffffffffffffffffff168273ffffffffffffffffffffffffffffffffffffffff161415610769576040517f08c379a000000000000000000000000000000000000000000000000000000000815260040161076090610df4565b60405180910390fd5b61077560008383610b47565b80600160008282546107879190610e66565b92505081905550806000808473ffffffffffffffffffffffffffffffffffffffff1673ffffffffffffffffffffffffffffffffffffffff16815260200190815260200160002060008282546107dc9190610e66565b925050819055508173ffffffffffffffffffffffffffffffffffffffff167f0f6798a560793a54c3bcfe86a93cde1e73087d944c0ea20544137d4121396885826040516108299190610e14565b60405180910390a2610879826000808573ffffffffffffffffffffffffffffffffffffffff1673ffffffffffffffffffffffffffffffffffffffff16815260200190815260200160002054610b4c565b5050565b600073ffffffffffffffffffffffffffffffffffffffff168273ffffffffffffffffffffffffffffffffffffffff1614156108ed576040517f08c379a00000000000000000000000000000000000000000000000000000000081526004016108e490610db4565b60405180910390fd5b6108f982600083610b47565b60008060008473ffffffffffffffffffffffffffffffffffffffff1673ffffffffffffffffffffffffffffffffffffffff1681526020019081526020016000205490508181101561097f576040517f08c379a000000000000000000000000000000000000000000000000000000000815260040161097690610d54565b60405180910390fd5b818161098b9190610ebc565b6000808573ffffffffffffffffffffffffffffffffffffffff1673ffffffffffffffffffffffffffffffffffffffff1681526020019081526020016000208190555081600160008282546109df9190610ebc565b925050819055508273ffffffffffffffffffffffffffffffffffffffff167fcc16f5dbb4873280815c1ee09dbd06736cffcc184412cf7a71a0fdb75d397ca583604051610a2c9190610e14565b60405180910390a2610a7c836000808673ffffffffffffffffffffffffffffffffffffffff1673ffffffffffffffffffffffffffffffffffffffff16815260200190815260200160002054610b4c565b505050565b6000600460009054906101000a900473ffffffffffffffffffffffffffffffffffffffff16905081600460006101000a81548173ffffffffffffffffffffffffffffffffffffffff021916908373ffffffffffffffffffffffffffffffffffffffff1602179055508173ffffffffffffffffffffffffffffffffffffffff168173ffffffffffffffffffffffffffffffffffffffff167f8be0079c531659141344cd1fd0a4f28419497f9722a3daafe3b4186f6b6457e060405160405180910390a35050565b505050565b5050565b600081359050610b5f8161119b565b92915050565b600081359050610b74816111b2565b92915050565b600060208284031215610b8c57600080fd5b6000610b9a84828501610b50565b91505092915050565b60008060408385031215610bb657600080fd5b6000610bc485828601610b50565b9250506020610bd585828601610b65565b9150509250929050565b610be881610ef0565b82525050565b6000610bf982610e4a565b610c038185610e55565b9350610c13818560208601610f39565b610c1c81610ffc565b840191505092915050565b6000610c34602283610e55565b9150610c3f8261100d565b604082019050919050565b6000610c57602683610e55565b9150610c628261105c565b604082019050919050565b6000610c7a602083610e55565b9150610c85826110ab565b602082019050919050565b6000610c9d602183610e55565b9150610ca8826110d4565b604082019050919050565b6000610cc0603883610e55565b9150610ccb82611123565b604082019050919050565b6000610ce3601f83610e55565b9150610cee82611172565b602082019050919050565b610d0281610f22565b82525050565b610d1181610f2c565b82525050565b6000602082019050610d2c6000830184610bdf565b92915050565b60006020820190508181036000830152610d4c8184610bee565b905092915050565b60006020820190508181036000830152610d6d81610c27565b9050919050565b60006020820190508181036000830152610d8d81610c4a565b9050919050565b60006020820190508181036000830152610dad81610c6d565b9050919050565b60006020820190508181036000830152610dcd81610c90565b9050919050565b60006020820190508181036000830152610ded81610cb3565b9050919050565b60006020820190508181036000830152610e0d81610cd6565b9050919050565b6000602082019050610e296000830184610cf9565b92915050565b6000602082019050610e446000830184610d08565b92915050565b600081519050919050565b600082825260208201905092915050565b6000610e7182610f22565b9150610e7c83610f22565b9250827fffffffffffffffffffffffffffffffffffffffffffffffffffffffffffffffff03821115610eb157610eb0610f9e565b5b828201905092915050565b6000610ec782610f22565b9150610ed283610f22565b925082821015610ee557610ee4610f9e565b5b828203905092915050565b6000610efb82610f02565b9050919050565b600073ffffffffffffffffffffffffffffffffffffffff82169050919050565b6000819050919050565b600060ff82169050919050565b60005b83811015610f57578082015181840152602081019050610f3c565b83811115610f66576000848401525b50505050565b60006002820490506001821680610f8457607f821691505b60208210811415610f9857610f97610fcd565b5b50919050565b7f4e487b7100000000000000000000000000000000000000000000000000000000600052601160045260246000fd5b7f4e487b7100000000000000000000000000000000000000000000000000000000600052602260045260246000fd5b6000601f19601f8301169050919050565b7f45524332303a206275726e20616d6f756e7420657863656564732062616c616e60008201527f6365000000000000000000000000000000000000000000000000000000000000602082015250565b7f4f776e61626c653a206e6577206f776e657220697320746865207a65726f206160008201527f6464726573730000000000000000000000000000000000000000000000000000602082015250565b7f4f776e61626c653a2063616c6c6572206973206e6f7420746865206f776e6572600082015250565b7f45524332303a206275726e2066726f6d20746865207a65726f2061646472657360008201527f7300000000000000000000000000000000000000000000000000000000000000602082015250565b7f56654a6f65546f6b656e3a2043616e6e6f742072656e6f756e63652c2063616e60008201527f206f6e6c79207472616e73666572206f776e6572736869700000000000000000602082015250565b7f45524332303a206d696e7420746f20746865207a65726f206164647265737300600082015250565b6111a481610ef0565b81146111af57600080fd5b50565b6111bb81610f22565b81146111c657600080fd5b5056fea264697066735822122063eb37893b2d0c0b8d79f9024af32a4b86d48b9eabecf60cabc87b4435609bb664736f6c63430008040033",
  "linkReferences": {},
  "deployedLinkReferences": {}
}